:100000000C9458000C9480000C9480000C94800098
:100010000C9480000C9480000C9480000C94800060
:100020000C9480000C9480000C9480000C94800050
:100030000C9480000C9480000C9480000C94800040
:100040000C9412040C9480000C9482040C945C04B4
:100050000C9480000C9480000C9480000C94800020
:100060000C94B4040C9480000000000025002800CB
:100070002B00040404040404040402020202020229
:10008000030303030303010204081020408001025C
:1000900004081020010204081020000000080002DB
:1000A0000100000304070000000000000000D2056A
:1000B00011241FBECFEFD8E0DEBFCDBF11E0A0E01E
:1000C000B1E0E4E1F3E102C005900D92A637B1077B
:1000D000D9F727E0A6E7B1E001C01D92AA34B20724
:1000E000E1F710E0C8E5D0E004C02197FE010E94CE
:1000F0006B09C735D107C9F70E940B060C94880914
:100100000C940000E0910A04F0910B04309729F060
:1001100010929E0610929D0609940895CF93DF9346
:10012000EC01E0910804F09109043097F1F090910E
:10013000A00680919F069817C0F090E0292F30E02C
:100140002617370754F4DE01A20FB31F4C9128572E
:100150003C4FD9014C939F5FF1CF1092A006609362
:100160009F06CB01DF91CF910994DF91CF91089544
:1001700090E0FC01E656FF4F2491FC01EA57FF4F47
:100180003491FC01EE58FF4FE491EE23C9F0222395
:1001900039F0233001F1A8F4213019F1223029F18E
:1001A000F0E0EE0FFF1FE859FF4FA591B4918FB714
:1001B000F894EC91611126C030953E233C938FBF9B
:1001C00008952730A9F02830C9F0243049F78091EC
:1001D00080008F7D03C0809180008F7780938000A6
:1001E000DFCF84B58F7784BDDBCF84B58F7DFBCF28
:1001F0008091B0008F778093B000D2CF8091B00013
:100200008F7DF9CF3E2BDACF3FB7F89480919506DA
:1002100090919606A0919706B091980626B5A89B56
:1002200005C02F3F19F00196A11DB11D3FBFBA2F88
:10023000A92F982F8827BC01CD01620F711D811D48
:10024000911D42E0660F771F881F991F4A95D1F7CD
:10025000089580919F069091A006891B990B08959F
:10026000AF92BF92CF92DF92EF92FF920F931F93C4
:10027000CF93DF936C017B018B01040F151FEB0102
:100280005E01AE18BF08C017D10759F06991D601B9
:10029000ED91FC910190F081E02DC6010995892B2B
:1002A00079F7C501DF91CF911F910F91FF90EF90EA
:1002B000DF90CF90BF90AF900895FC01538D448D97
:1002C000252F30E0842F90E0821B930B541710F001
:1002D000CF96089501970895FC01918D828D98170E
:1002E00061F0A28DAE0FBF2FB11D5D968C91928DE6
:1002F0009F5F9F73928F90E008958FEF9FEF089517
:10030000FC01918D828D981731F0828DE80FF11DDF
:10031000858D90E008958FEF9FEF0895FC01918DFA
:10032000228D892F90E0805C9F4F821B91098F73F3
:100330009927089581EA96E00E948E0121E0892B99
:1003400009F420E0822F089580E090E0892B29F0C5
:100350000E949A0181110C9400000895FC01A48D63
:10036000A80FB92FB11DA35ABF4F2C91848D90E0D7
:1003700001968F739927848FA689B7892C93A089BA
:10038000B1898C91837080648C93938D848D981344
:1003900006C00288F389E02D80818F7D80830895D7
:1003A000EF92FF920F931F93CF93DF93EC0181E0C5
:1003B000888F9B8D8C8D98131AC0E889F98980816C
:1003C00085FF15C09FB7F894EE89FF896083E8899F
:1003D000F98980818370806480839FBF81E090E091
:1003E000DF91CF911F910F91FF90EF900895F62E1E
:1003F0000B8D10E00F5F1F4F0F731127E02E8C8DB8
:100400008E110CC00FB607FCFACFE889F9898081FC
:1004100085FFF5CFCE010E94AE01F1CFEB8DEC0F41
:10042000FD2FF11DE35AFF4FF0829FB7F8940B8F19
:10043000EA89FB8980818062CFCFCF93DF93EC0183
:10044000888D8823B9F0AA89BB89E889F9898C91BC
:1004500085FD03C0808186FD0DC00FB607FCF7CF78
:100460008C9185FFF2CF808185FFEDCFCE010E9478
:10047000AE01E9CFDF91CF9108952091F701260FCA
:100480003327331F21383105ECF420918203FC011E
:1004900090E080E0243069F082E00895A091F701B7
:1004A0002191AC0149585E4FA40FB52FB11D2C937B
:1004B0000196861798F38091F701680F6093F70112
:1004C00080E0089581E00895ECEBF0E080818A7B84
:1004D000808360E082E10E94B80060E083E10C94D8
:1004E000B8001092820381E08093810310927C0314
:1004F00061E082E10E94B80061E083E10E94B800FF
:10050000E9EBF0E080818E7F808380818D7F808326
:1005100088E48093B80085E48093BC00089510922D
:10052000A00610929F0610929E0610929D060E94B1
:10053000710282E890E090939C0680939B068EE87F
:1005400090E090939A06809399060895CF93DF9355
:1005500091E090937601882361F0C091B800D0912A
:10056000BA000E9464020E947102D093BA00C09344
:10057000B800DF91CF9108950895E091A006809191
:100580009F06E81730F4F0E0E857FC4F808190E0D8
:1005900008958FEF9FEF08959091A00680919F0698
:1005A0002FEF3FEF981748F4E92FF0E0E857FC4FA2
:1005B000208130E09F5F9093A006C9010895CF92FB
:1005C000DF92EF92FF920F931F93CF93DF937C0103
:1005D000CB018A0120917A02222389F0EB016B0181
:1005E000C40ED51ECC15DD0569F06991D701ED91DA
:1005F000FC910190F081E02DC7010995F3CF642FA4
:100600000E943D02C801DF91CF911F910F91FF9091
:10061000EF90DF90CF900895CF93DF931F92CDB7E7
:10062000DEB7698320917A022223F9F020919D069A
:1006300027FF0BC021E030E0FC013383228390E0F0
:1006400080E00F90DF91CF91089580919E06E82F72
:10065000F0E0E558FD4F998190838F5F80939E066F
:1006600080939D0681E090E0ECCF61E0CE010196A1
:100670000E943D02F7CF60E08EE397E00E940C03FA
:1006800060E08EE397E00C940C0390E080E0089526
:1006900010928E0690919F068091A006981799F06F
:1006A00080918E0687FD0FC08EE397E00E94CC02FA
:1006B000E0918E0691E09E0F90938E06F0E0E25F4F
:1006C000F94F8083E7CF81E080938F060895982FBC
:1006D00080ED890F8A3070F08FEB890F863018F427
:1006E00089EC890F08958FE9890F863010F489EA23
:1006F000F8CF80E00895FC0101900020E9F73197E0
:10070000AF01481B590BBC0181EA96E00C94300103
:100710008F929F92AF92BF920F931F93CF93DF93CD
:10072000CDB7DEB7A1970FB6F894DEBF0FBECDBF31
:1007300019A2423008F44AE08E010F5D1F4F842E4B
:10074000912CB12CA12CA50194010E944909E62FFE
:10075000B901CA01EA30F4F4E05DD801EE938D01ED
:10076000232B242B252B79F790E080E0109719F0AC
:10077000CD010E947B03A1960FB6F894DEBF0FBE99
:10078000CDBFDF91CF911F910F91BF90AF909F9000
:100790008F900895E95CE1CFCF93DF930E947B03B4
:1007A000EC0184E291E00E947B038C0F9D1FDF919E
:1007B000CF91089585ED8093BC0080918403909142
:1007C0008503A0918603B09187030796A11DB11DF3
:1007D00023E0B695A795979587952A95D1F720910F
:1007E000BC0024FD03C0109282030895409184034D
:1007F000509185036091860370918703452B462BAA
:10080000472B69F30097A105B10541F02AE22A952B
:10081000F1F700C00197A109B109E1CF80918303ED
:100820000C94A6021F920F920FB60F9211242F93D1
:100830003F938F939F93AF93BF9380919106909135
:100840009206A0919306B09194063091900623E011
:10085000230F2D3758F50196A11DB11D2093900649
:100860008093910690939206A0939306B09394067A
:100870008091950690919606A0919706B091980662
:100880000196A11DB11D8093950690939606A093A5
:100890009706B0939806BF91AF919F918F913F912A
:1008A0002F910F900FBE0F901F90189526E8230FE1
:1008B0000296A11DB11DD2CF1F920F920FB60F92BB
:1008C00011242F933F934F935F936F937F938F9355
:1008D0009F93AF93BF93EF93FF9381EA96E00E94BB
:1008E000AE01FF91EF91BF91AF919F918F917F9159
:1008F0006F915F914F913F912F910F900FBE0F908D
:100900001F9018951F920F920FB60F9211242F93DC
:100910008F939F93EF93FF93E091B106F091B2060E
:100920008081E091B706F091B80682FD1BC09081EE
:100930008091BA068F5F8F732091BB06821741F0BA
:10094000E091BA06F0E0EF55F94F958F8093BA0623
:10095000FF91EF919F918F912F910F900FBE0F906C
:100960001F9018958081F4CF1F920F920FB60F92AF
:1009700011242F933F934F935F936F937F938F93A4
:100980009F93AF93BF93EF93FF938091B900887FBC
:10099000803609F44AC0F0F5883209F4A6C018F58B
:1009A000803109F49AC0B8F4882309F4F8C088307B
:1009B00009F493C0FF91EF91BF91AF919F918F91F7
:1009C0007F916F915F914F913F912F910F900FBE4B
:1009D0000F901F901895883109F487C0803251F725
:1009E0008093800314C0803409F49CC040F48033A9
:1009F000B9F38833F9F68093800385ECAFC0803576
:100A000009F484C0883509F495C0883499F60E94A9
:100A1000DA03D0CF883909F48BC030F5883729F054
:100A200050F4883611F0803729F683E080938203F2
:100A30001092790256C0883809F47AC0803919F0CA
:100A4000803809F0B7CF8091790287FD71C0E091BD
:100A5000790281E08E0F809379028091BB00F0E0F3
:100A6000E750FE4F80833DC0803B39F0E0F4803A90
:100A700009F479C0883A09F09DCF84E0809382031D
:100A80001092F8011092F701E0919B06F0919C06FC
:100A900009958091F70181110FC081E08093F701E2
:100AA0001092770109C0803C09F4A7CF883C09F473
:100AB000A4CF883B09F07ECFE091F80181E08E0F52
:100AC0008093F801F0E0E958FE4F80818093BB00ED
:100AD0009091F8018091F70129C080917D03809366
:100AE000BB0085EC8093BC0065CF90917F03809123
:100AF0007E03981758F5E0917F0381E08E0F809375
:100B00007F03F0E0E450FD4F8081E9CFE0917F0367
:100B100081E08E0F80937F038091BB00F0E0E45072
:100B2000FD4F808390917F0380917E039817C8F2D8
:100B300085E8D8CFE0917F0381E08E0F80937F031B
:100B40008091BB00F0E0E450FD4F808380918103F1
:100B500081115DCF81E080937C0384EA8093BC00A7
:100B60001092820327CF85EC8093BC001092820301
:100B70008091790287FD06C0E0917902F0E0E750AC
:100B8000FE4F10826091790270E0E0919906F09139
:100B90009A0689EF91E00995109279020BCF109295
:100BA000800335CFE1EAF6E01382128288EE93E00B
:100BB000A0E0B0E084839583A683B78324E031E08E
:100BC0003183208325EC30E03587248724EC30E026
:100BD0003787268720EC30E0318B208B21EC30E00A
:100BE000338B228B22EC30E0358B248B26EC30E0EB
:100BF000378B268B118E128E138E148EEEE3F7E058
:100C00001382128284839583A683B78386E191E061
:100C1000918380830895CF93DF93CDB7DEB7C0581B
:100C2000D1090FB6F894DEBF0FBECDBF789484B55E
:100C3000826084BD84B5816084BD85B5826085BDD8
:100C400085B5816085BD80916E00816080936E0066
:100C50001092810080918100826080938100809158
:100C60008100816080938100809180008160809309
:100C700080008091B10084608093B1008091B000C9
:100C800081608093B00080917A00846080937A00C4
:100C900080917A00826080937A0080917A008160EE
:100CA00080937A0080917A00806880937A00109215
:100CB000C100E091B106F091B20682E08083E0913C
:100CC000AD06F091AE061082E091AF06F091B0064D
:100CD00080E180831092B906E091B506F091B606E6
:100CE00086E08083E091B306F091B4068081806154
:100CF0008083E091B306F091B406808188608083A0
:100D0000E091B306F091B406808180688083E09121
:100D1000B306F091B40680818F7D80830E94040128
:100D20004B015C0144E6C42ED12CE12CF12C0E9435
:100D30000401681979098A099B09683E7340810595
:100D40009105A8F321E0C21AD108E108F10888EE64
:100D5000880E83E0981EA11CB11CC114D104E104CB
:100D6000F10429F787E291E00E94CC030E948F02F0
:100D70008EE28093BA0088E493E090930904809314
:100D800008048BE393E090930B0480930A0484E3BC
:100D900091E00E94CC03CE0101966C01552453943E
:100DA00038E4632E33E0732E80918F06882381F11F
:100DB00010928F068AE391E00E947B0360918E0679
:100DC00070E090E080E04AE00E9488038CE391E0CC
:100DD0000E947B0310E080918E061817A8F4E12F83
:100DE000F0E0E25FF94F0081003128F460E381EA2E
:100DF00096E00E94D001602F70E090E080E040E13A
:100E00000E9488031F5FE7CF84E291E00E947B038A
:100E100025EC322E81EA96E00E948E01892B09F49E
:100E20002BC281EA96E00E946C0120910C06309161
:100E30000D068A3019F08D3009F00DC221153105EB
:100E400049F3245F3B4FF901108243E050E06EE329
:100E500071E08CE094E00E947A09892B09F0EFC1DF
:100E6000EFE0F4E001900020E9F78F010051144019
:100E70000230110510F000FF09C082E491E00E94E9
:100E8000CC0310920D0610920C06C4CF1695079550
:100E9000202EF0E88CE0E82E84E0F82E560185E55F
:100EA00091E0F01760F322E0E20EF11C8A2D8C191C
:100EB000821590F4F70181810E946703482EF701A3
:100EC00082810E946703F0E14F9E90011124822BE2
:100ED000F50181935F01E7CF0E9464020E948F02B7
:100EE00050927A02F7E1F093FB0210929E06109264
:100EF0009D06A8015527B6018EE397E00E94DF0208
:100F000010919D06113808F092C00091FB020E94DA
:100F100004014B015C0180918203811163C022E0D6
:100F200020938203109281038FEF809380031092AD
:100F30007F0310937E03EBE7F2E0ACEFB2E080E0DA
:100F40001813E6C010927D0380917D03000F082BDB
:100F500000937D0380917C03813009F0DDC0109205
:100F60007C030E9404014B015C0180917D0380930E
:100F7000BB008091840390918503A0918603B0917A
:100F80008703892B8A2B8B2B99F00E9404010091F7
:100F9000840310918503209186033091870368199B
:100FA00079098A099B090617170728073907D8F115
:100FB0008091BC0083FDD9CF3092BC000E94040117
:100FC0004B015C0180918203823009F4A9C08091B9
:100FD00080038F3F61F180918003803241F18091E5
:100FE000800325C08091840390918503A09186039E
:100FF000B0918703892B8A2B8B2B09F48CCF0E940D
:10100000040120918403309185034091860350911F
:101010008703681979098A099B0926173707480742
:10102000590708F078CF809183030E94A60210929E
:101030009E0610929D0610927A020E9404014B01B6
:101040005C018091820381118DC050928203509285
:101050008103EFEFE093800310927F0350927E03B1
:1010600050927D0380917D038E6280937D038091F9
:101070007C03813009F0A9C010927C030E94040116
:101080004B015C0180917D038093BB0080918403C0
:1010900090918503A0918603B0918703892B8A2BB9
:1010A0008B2BA1F00E940401009184031091850311
:1010B0002091860330918703681979098A099B0971
:1010C000061717072807390708F46DC08091BC0080
:1010D00083FDD8CF3092BC000E9404014B015C011B
:1010E00080918203813009F474C080917F0312E003
:1010F000823010F410917F03ACEFB2E0E8E8F3E047
:1011000080E0811709F454C09D9191938F5FF9CFCE
:1011100091919D938F5F14CF95EE9093BC004ECF2D
:101120008091840390918503A0918603B0918703F9
:10113000892B8A2B8B2B09F445CF0E940401009147
:1011400084031091850320918603309187036819E9
:1011500079098A099B09061717072807390708F034
:1011600031CF61CF8091840390918503A091860354
:10117000B0918703892B8A2B8B2B09F462CF0E94B5
:10118000040100918403109185032091860330911E
:101190008703681979098A099B0906171707280721
:1011A000390708F04ECF809183030E94A60210E019
:1011B0001092A00610939F068091A006181759F16F
:1011C0008EE397E00E94CC02F7CFF5EEF093BC00DF
:1011D00083CF8091840390918503A0918603B09181
:1011E0008703892B8A2B8B2B09F47ACF0E94040169
:1011F0000091840310918503209186033091870329
:10120000681979098A099B090617170728073907FA
:1012100008F066CFC8CF0E9464020E948F022EE2BF
:101220002093BA0070920904609208048BE393E063
:1012300090930B0480930A0485E691E020CE6BE640
:1012400071E08CE094E00E947109892B09F019CEBD
:1012500080E791E014CE2F3F91E0390708F0DACD16
:10126000A9014F5F5F4F50930D0640930C06245F1A
:101270003B4FF9018083CECD80E090E0892B09F4CB
:1012800093CD0E949A01882309F48ECD0E9400001C
:101290008BCDA1E21A2EAA1BBB1BFD010DC0AA1FFC
:1012A000BB1FEE1FFF1FA217B307E407F50720F0CF
:1012B000A21BB30BE40BF50B661F771F881F991F4A
:1012C0001A9469F760957095809590959B01AC0193
:1012D000BD01CF010895EE0FFF1F0590F491E02DA1
:1012E0000994FB01DC018D91019080190110D9F363
:1012F000990B0895FB01DC014150504030F08D9175
:101300000190801919F40020B9F7881B990B0895F2
:04131000F894FFCF7F
:1013140000000000D00130015D011D028E016C014E
:101324008001000000000C03DF024503BC02290118
:10133400CC02BD020D0A004932435F50524F585946
:101344003A56310052454144590052583A005458D3
:101354003A0054583A4552523A494E56414C49443F
:101364005F4845580054583A4552523A544F4F5FDB
:101374004C4F4E470054583A4F4B0050494E47008B
:06138400504F4E4700002F
:00000001FF
